{
  "_format": "hh-sol-artifact-1",
  "contractName": "NFTGallery",
  "sourceName": "contracts/NFTGallery.sol",
  "abi": [
    {
      "inputs": [],
      "stateMutability": "nonpayable",
      "type": "constructor"
    },
    {
      "anonymous": false,
      "inputs": [
        {
          "indexed": true,
          "internalType": "address",
          "name": "owner",
          "type": "address"
        },
        {
          "indexed": true,
          "internalType": "address",
          "name": "approved",
          "type": "address"
        },
        {
          "indexed": true,
          "internalType": "uint256",
          "name": "tokenId",
          "type": "uint256"
        }
      ],
      "name": "Approval",
      "type": "event"
    },
    {
      "anonymous": false,
      "inputs": [
        {
          "indexed": true,
          "internalType": "address",
          "name": "owner",
          "type": "address"
        },
        {
          "indexed": true,
          "internalType": "address",
          "name": "operator",
          "type": "address"
        },
        {
          "indexed": false,
          "internalType": "bool",
          "name": "approved",
          "type": "bool"
        }
      ],
      "name": "ApprovalForAll",
      "type": "event"
    },
    {
      "anonymous": false,
      "inputs": [
        {
          "indexed": false,
          "internalType": "address",
          "name": "sender",
          "type": "address"
        },
        {
          "indexed": false,
          "internalType": "uint256",
          "name": "tokenId",
          "type": "uint256"
        }
      ],
      "name": "NewEpicNFTMinted",
      "type": "event"
    },
    {
      "anonymous": false,
      "inputs": [
        {
          "indexed": true,
          "internalType": "address",
          "name": "from",
          "type": "address"
        },
        {
          "indexed": true,
          "internalType": "address",
          "name": "to",
          "type": "address"
        },
        {
          "indexed": true,
          "internalType": "uint256",
          "name": "tokenId",
          "type": "uint256"
        }
      ],
      "name": "Transfer",
      "type": "event"
    },
    {
      "inputs": [
        {
          "internalType": "address",
          "name": "to",
          "type": "address"
        },
        {
          "internalType": "uint256",
          "name": "tokenId",
          "type": "uint256"
        }
      ],
      "name": "approve",
      "outputs": [],
      "stateMutability": "nonpayable",
      "type": "function"
    },
    {
      "inputs": [
        {
          "internalType": "address",
          "name": "owner",
          "type": "address"
        }
      ],
      "name": "balanceOf",
      "outputs": [
        {
          "internalType": "uint256",
          "name": "",
          "type": "uint256"
        }
      ],
      "stateMutability": "view",
      "type": "function"
    },
    {
      "inputs": [
        {
          "internalType": "uint256",
          "name": "tokenId",
          "type": "uint256"
        }
      ],
      "name": "getApproved",
      "outputs": [
        {
          "internalType": "address",
          "name": "",
          "type": "address"
        }
      ],
      "stateMutability": "view",
      "type": "function"
    },
    {
      "inputs": [],
      "name": "getMaxNFTsNumber",
      "outputs": [
        {
          "internalType": "uint256",
          "name": "",
          "type": "uint256"
        }
      ],
      "stateMutability": "view",
      "type": "function"
    },
    {
      "inputs": [],
      "name": "getTotalNFTsMintedSoFar",
      "outputs": [
        {
          "internalType": "uint256",
          "name": "",
          "type": "uint256"
        }
      ],
      "stateMutability": "view",
      "type": "function"
    },
    {
      "inputs": [
        {
          "internalType": "address",
          "name": "owner",
          "type": "address"
        },
        {
          "internalType": "address",
          "name": "operator",
          "type": "address"
        }
      ],
      "name": "isApprovedForAll",
      "outputs": [
        {
          "internalType": "bool",
          "name": "",
          "type": "bool"
        }
      ],
      "stateMutability": "view",
      "type": "function"
    },
    {
      "inputs": [],
      "name": "makeAnEpicNFT",
      "outputs": [],
      "stateMutability": "nonpayable",
      "type": "function"
    },
    {
      "inputs": [],
      "name": "name",
      "outputs": [
        {
          "internalType": "string",
          "name": "",
          "type": "string"
        }
      ],
      "stateMutability": "view",
      "type": "function"
    },
    {
      "inputs": [
        {
          "internalType": "uint256",
          "name": "tokenId",
          "type": "uint256"
        }
      ],
      "name": "ownerOf",
      "outputs": [
        {
          "internalType": "address",
          "name": "",
          "type": "address"
        }
      ],
      "stateMutability": "view",
      "type": "function"
    },
    {
      "inputs": [
        {
          "internalType": "uint256",
          "name": "tokenId",
          "type": "uint256"
        }
      ],
      "name": "pickRandomFirstWord",
      "outputs": [
        {
          "internalType": "string",
          "name": "",
          "type": "string"
        }
      ],
      "stateMutability": "view",
      "type": "function"
    },
    {
      "inputs": [
        {
          "internalType": "uint256",
          "name": "tokenId",
          "type": "uint256"
        }
      ],
      "name": "pickRandomSecondWord",
      "outputs": [
        {
          "internalType": "string",
          "name": "",
          "type": "string"
        }
      ],
      "stateMutability": "view",
      "type": "function"
    },
    {
      "inputs": [
        {
          "internalType": "uint256",
          "name": "tokenId",
          "type": "uint256"
        }
      ],
      "name": "pickRandomThirdWord",
      "outputs": [
        {
          "internalType": "string",
          "name": "",
          "type": "string"
        }
      ],
      "stateMutability": "view",
      "type": "function"
    },
    {
      "inputs": [
        {
          "internalType": "address",
          "name": "from",
          "type": "address"
        },
        {
          "internalType": "address",
          "name": "to",
          "type": "address"
        },
        {
          "internalType": "uint256",
          "name": "tokenId",
          "type": "uint256"
        }
      ],
      "name": "safeTransferFrom",
      "outputs": [],
      "stateMutability": "nonpayable",
      "type": "function"
    },
    {
      "inputs": [
        {
          "internalType": "address",
          "name": "from",
          "type": "address"
        },
        {
          "internalType": "address",
          "name": "to",
          "type": "address"
        },
        {
          "internalType": "uint256",
          "name": "tokenId",
          "type": "uint256"
        },
        {
          "internalType": "bytes",
          "name": "_data",
          "type": "bytes"
        }
      ],
      "name": "safeTransferFrom",
      "outputs": [],
      "stateMutability": "nonpayable",
      "type": "function"
    },
    {
      "inputs": [
        {
          "internalType": "address",
          "name": "operator",
          "type": "address"
        },
        {
          "internalType": "bool",
          "name": "approved",
          "type": "bool"
        }
      ],
      "name": "setApprovalForAll",
      "outputs": [],
      "stateMutability": "nonpayable",
      "type": "function"
    },
    {
      "inputs": [
        {
          "internalType": "bytes4",
          "name": "interfaceId",
          "type": "bytes4"
        }
      ],
      "name": "supportsInterface",
      "outputs": [
        {
          "internalType": "bool",
          "name": "",
          "type": "bool"
        }
      ],
      "stateMutability": "view",
      "type": "function"
    },
    {
      "inputs": [],
      "name": "symbol",
      "outputs": [
        {
          "internalType": "string",
          "name": "",
          "type": "string"
        }
      ],
      "stateMutability": "view",
      "type": "function"
    },
    {
      "inputs": [
        {
          "internalType": "uint256",
          "name": "tokenId",
          "type": "uint256"
        }
      ],
      "name": "tokenURI",
      "outputs": [
        {
          "internalType": "string",
          "name": "",
          "type": "string"
        }
      ],
      "stateMutability": "view",
      "type": "function"
    },
    {
      "inputs": [
        {
          "internalType": "address",
          "name": "from",
          "type": "address"
        },
        {
          "internalType": "address",
          "name": "to",
          "type": "address"
        },
        {
          "internalType": "uint256",
          "name": "tokenId",
          "type": "uint256"
        }
      ],
      "name": "transferFrom",
      "outputs": [],
      "stateMutability": "nonpayable",
      "type": "function"
    }
  ],
  "bytecode": "0x6080604052600f60075560405180610160016040528061012f815260200162004e6461012f9139600990805190602001906200003d9291906200115b565b506040518061032001604052806040518060400160405280600981526020017f42756c626173617572000000000000000000000000000000000000000000000081525081526020016040518060400160405280600781526020017f497679736175720000000000000000000000000000000000000000000000000081525081526020016040518060400160405280600881526020017f56656e757361757200000000000000000000000000000000000000000000000081525081526020016040518060400160405280600a81526020017f436861726d616e6465720000000000000000000000000000000000000000000081525081526020016040518060400160405280600a81526020017f436861726d656c656f6e0000000000000000000000000000000000000000000081525081526020016040518060400160405280600981526020017f43686172697a617264000000000000000000000000000000000000000000000081525081526020016040518060400160405280600881526020017f5371756972746c6500000000000000000000000000000000000000000000000081525081526020016040518060400160405280600981526020017f576172746f72746c65000000000000000000000000000000000000000000000081525081526020016040518060400160405280600981526020017f426c6173746f697365000000000000000000000000000000000000000000000081525081526020016040518060400160405280600881526020017f436174657270696500000000000000000000000000000000000000000000000081525081526020016040518060400160405280600781526020017f4d657461706f640000000000000000000000000000000000000000000000000081525081526020016040518060400160405280600a81526020017f427574746572667265650000000000000000000000000000000000000000000081525081526020016040518060400160405280600681526020017f576565646c65000000000000000000000000000000000000000000000000000081525081526020016040518060400160405280600681526020017f4b616b756e61000000000000000000000000000000000000000000000000000081525081526020016040518060400160405280600881526020017f4265656472696c6c00000000000000000000000000000000000000000000000081525081526020016040518060400160405280600681526020017f506964676579000000000000000000000000000000000000000000000000000081525081526020016040518060400160405280600981526020017f50696467656f74746f000000000000000000000000000000000000000000000081525081526020016040518060400160405280600781526020017f50696467656f740000000000000000000000000000000000000000000000000081525081526020016040518060400160405280600781526020017f526174746174610000000000000000000000000000000000000000000000000081525081526020016040518060400160405280600881526020017f526174696361746500000000000000000000000000000000000000000000000081525081526020016040518060400160405280600781526020017f53706561726f770000000000000000000000000000000000000000000000000081525081526020016040518060400160405280600681526020017f466561726f77000000000000000000000000000000000000000000000000000081525081526020016040518060400160405280600581526020017f456b616e7300000000000000000000000000000000000000000000000000000081525081526020016040518060400160405280600581526020017f4172626f6b00000000000000000000000000000000000000000000000000000081525081526020016040518060400160405280600781526020017f50696b6163687500000000000000000000000000000000000000000000000000815250815250600a9060196200061d929190620011ec565b506040518061020001604052806040518060400160405280600281526020017f497300000000000000000000000000000000000000000000000000000000000081525081526020016040518060400160405280600381526020017f486173000000000000000000000000000000000000000000000000000000000081525081526020016040518060400160405280600481526020017f536179730000000000000000000000000000000000000000000000000000000081525081526020016040518060400160405280600481526020017f476574730000000000000000000000000000000000000000000000000000000081525081526020016040518060400160405280600581526020017f4d616b657300000000000000000000000000000000000000000000000000000081525081526020016040518060400160405280600581526020017f4b6e6f777300000000000000000000000000000000000000000000000000000081525081526020016040518060400160405280600581526020017f54616b657300000000000000000000000000000000000000000000000000000081525081526020016040518060400160405280600481526020017f536565730000000000000000000000000000000000000000000000000000000081525081526020016040518060400160405280600581526020017f57616e747300000000000000000000000000000000000000000000000000000081525081526020016040518060400160405280600581526020017f476976657300000000000000000000000000000000000000000000000000000081525081526020016040518060400160405280600481526020017f557365730000000000000000000000000000000000000000000000000000000081525081526020016040518060400160405280600581526020017f46696e647300000000000000000000000000000000000000000000000000000081525081526020016040518060400160405280600481526020017f41736b730000000000000000000000000000000000000000000000000000000081525081526020016040518060400160405280600581526020017f5365656d7300000000000000000000000000000000000000000000000000000081525081526020016040518060400160405280600581526020017f4665656c7300000000000000000000000000000000000000000000000000000081525081526020016040518060400160405280600581526020017f5472696573000000000000000000000000000000000000000000000000000000815250815250600b906010620009ea92919062001253565b506040518061030001604052806040518060400160405280600681526020017f526169636875000000000000000000000000000000000000000000000000000081525081526020016040518060400160405280600981526020017f53616e647368726577000000000000000000000000000000000000000000000081525081526020016040518060400160405280600981526020017f53616e64736c617368000000000000000000000000000000000000000000000081525081526020016040518060400160405280600781526020017f4e69646f72616e0000000000000000000000000000000000000000000000000081525081526020016040518060400160405280600881526020017f4e69646f72696e6100000000000000000000000000000000000000000000000081525081526020016040518060400160405280600981526020017f4e69646f717565656e000000000000000000000000000000000000000000000081525081526020016040518060400160405280600881526020017f4e69646f72696e6f00000000000000000000000000000000000000000000000081525081526020016040518060400160405280600881526020017f4e69646f6b696e6700000000000000000000000000000000000000000000000081525081526020016040518060400160405280600881526020017f436c65666169727900000000000000000000000000000000000000000000000081525081526020016040518060400160405280600881526020017f436c656661626c6500000000000000000000000000000000000000000000000081525081526020016040518060400160405280600681526020017f56756c706978000000000000000000000000000000000000000000000000000081525081526020016040518060400160405280600981526020017f4e696e6574616c6573000000000000000000000000000000000000000000000081525081526020016040518060400160405280600a81526020017f4a6967676c79707566660000000000000000000000000000000000000000000081525081526020016040518060400160405280600a81526020017f576967676c79747566660000000000000000000000000000000000000000000081525081526020016040518060400160405280600581526020017f5a7562617400000000000000000000000000000000000000000000000000000081525081526020016040518060400160405280600681526020017f476f6c626174000000000000000000000000000000000000000000000000000081525081526020016040518060400160405280600681526020017f4f6464697368000000000000000000000000000000000000000000000000000081525081526020016040518060400160405280600581526020017f476c6f6f6d00000000000000000000000000000000000000000000000000000081525081526020016040518060400160405280600981526020017f56696c65706c756d65000000000000000000000000000000000000000000000081525081526020016040518060400160405280600581526020017f506172617300000000000000000000000000000000000000000000000000000081525081526020016040518060400160405280600881526020017f506172617365637400000000000000000000000000000000000000000000000081525081526020016040518060400160405280600781526020017f56656e6f6e61740000000000000000000000000000000000000000000000000081525081526020016040518060400160405280600881526020017f56656e6f6d6f746800000000000000000000000000000000000000000000000081525081526020016040518060400160405280600781526020017f4469676c65747400000000000000000000000000000000000000000000000000815250815250600c90601862000f8f929190620012ba565b5034801562000f9d57600080fd5b506040518060400160405280600981526020017f5371756172654e465400000000000000000000000000000000000000000000008152506040518060400160405280600681526020017f53515541524500000000000000000000000000000000000000000000000000008152508160009080519060200190620010229291906200115b565b5080600190805190602001906200103b9291906200115b565b505050620010896040518060400160405280601e81526020017f54686973206973206d79204e465420636f6e74726163742e20576f61682100008152506200108f60201b620012da1760201c565b620014db565b6200112f81604051602401620010a69190620013ef565b6040516020818303038152906040527f41304fac000000000000000000000000000000000000000000000000000000007bffffffffffffffffffffffffffffffffffffffffffffffffffffffff19166020820180517bffffffffffffffffffffffffffffffffffffffffffffffffffffffff83818316178352505050506200113260201b60201c565b50565b60008151905060006a636f6e736f6c652e6c6f679050602083016000808483855afa5050505050565b828054620011699062001465565b90600052602060002090601f0160209004810192826200118d5760008555620011d9565b82601f10620011a857805160ff1916838001178555620011d9565b82800160010185558215620011d9579182015b82811115620011d8578251825591602001919060010190620011bb565b5b509050620011e8919062001321565b5090565b82805482825590600052602060002090810192821562001240579160200282015b828111156200123f5782518290805190602001906200122e9291906200115b565b50916020019190600101906200120d565b5b5090506200124f919062001340565b5090565b828054828255906000526020600020908101928215620012a7579160200282015b82811115620012a6578251829080519060200190620012959291906200115b565b509160200191906001019062001274565b5b509050620012b6919062001340565b5090565b8280548282559060005260206000209081019282156200130e579160200282015b828111156200130d578251829080519060200190620012fc9291906200115b565b5091602001919060010190620012db565b5b5090506200131d919062001340565b5090565b5b808211156200133c57600081600090555060010162001322565b5090565b5b808211156200136457600081816200135a919062001368565b5060010162001341565b5090565b508054620013769062001465565b6000825580601f106200138a5750620013ab565b601f016020900490600052602060002090810190620013aa919062001321565b5b50565b6000620013bb8262001413565b620013c781856200141e565b9350620013d98185602086016200142f565b620013e481620014ca565b840191505092915050565b600060208201905081810360008301526200140b8184620013ae565b905092915050565b600081519050919050565b600082825260208201905092915050565b60005b838110156200144f57808201518184015260208101905062001432565b838111156200145f576000848401525b50505050565b600060028204905060018216806200147e57607f821691505b602082108114156200149557620014946200149b565b5b50919050565b7f4e487b7100000000000000000000000000000000000000000000000000000000600052602260045260246000fd5b6000601f19601f8301169050919050565b61397980620014eb6000396000f3fe608060405234801561001057600080fd5b50600436106101215760003560e01c80636352211e116100ad578063b88d4fde11610071578063b88d4fde1461032e578063c575757a1461034a578063c87b56dd1461037a578063de9d132f146103aa578063e985e9c5146103b457610121565b80636352211e1461026457806370a082311461029457806395d89b41146102c4578063a22cb465146102e2578063b187301f146102fe57610121565b8063095ea7b3116100f4578063095ea7b3146101c257806323b872dd146101de5780632de38d68146101fa57806342842e0e1461022a5780634d4398f71461024657610121565b806301ffc9a714610126578063060475901461015657806306fdde0314610174578063081812fc14610192575b600080fd5b610140600480360381019061013b919061256d565b6103e4565b60405161014d91906131cf565b60405180910390f35b61015e6104c6565b60405161016b919061346a565b60405180910390f35b61017c6104d7565b60405161018991906131ea565b60405180910390f35b6101ac60048036038101906101a791906125bf565b610569565b6040516101b9919061313f565b60405180910390f35b6101dc60048036038101906101d79190612531565b6105ee565b005b6101f860048036038101906101f3919061242b565b610706565b005b610214600480360381019061020f91906125bf565b610766565b60405161022191906131ea565b60405180910390f35b610244600480360381019061023f919061242b565b610884565b005b61024e6108a4565b60405161025b919061346a565b60405180910390f35b61027e600480360381019061027991906125bf565b6108ae565b60405161028b919061313f565b60405180910390f35b6102ae60048036038101906102a991906123c6565b610960565b6040516102bb919061346a565b60405180910390f35b6102cc610a18565b6040516102d991906131ea565b60405180910390f35b6102fc60048036038101906102f791906124f5565b610aaa565b005b610318600480360381019061031391906125bf565b610c2b565b60405161032591906131ea565b60405180910390f35b6103486004803603810190610343919061247a565b610d49565b005b610364600480360381019061035f91906125bf565b610dab565b60405161037191906131ea565b60405180910390f35b610394600480360381019061038f91906125bf565b610ec9565b6040516103a191906131ea565b60405180910390f35b6103b261101b565b005b6103ce60048036038101906103c991906123ef565b611246565b6040516103db91906131cf565b60405180910390f35b60007f80ac58cd000000000000000000000000000000000000000000000000000000007bffffffffffffffffffffffffffffffffffffffffffffffffffffffff1916827bffffffffffffffffffffffffffffffffffffffffffffffffffffffff191614806104af57507f5b5e139f000000000000000000000000000000000000000000000000000000007bffffffffffffffffffffffffffffffffffffffffffffffffffffffff1916827bffffffffffffffffffffffffffffffffffffffffffffffffffffffff1916145b806104bf57506104be82611373565b5b9050919050565b60006104d260086113dd565b905090565b6060600080546104e690613709565b80601f016020809104026020016040519081016040528092919081815260200182805461051290613709565b801561055f5780601f106105345761010080835404028352916020019161055f565b820191906000526020600020905b81548152906001019060200180831161054257829003601f168201915b5050505050905090565b6000610574826113eb565b6105b3576040517f08c379a00000000000000000000000000000000000000000000000000000000081526004016105aa906133ca565b60405180910390fd5b6004600083815260200190815260200160002060009054906101000a900473ffffffffffffffffffffffffffffffffffffffff169050919050565b60006105f9826108ae565b90508073ffffffffffffffffffffffffffffffffffffffff168373ffffffffffffffffffffffffffffffffffffffff16141561066a576040517f08c379a00000000000000000000000000000000000000000000000000000000081526004016106619061342a565b60405180910390fd5b8073ffffffffffffffffffffffffffffffffffffffff16610689611457565b73ffffffffffffffffffffffffffffffffffffffff1614806106b857506106b7816106b2611457565b611246565b5b6106f7576040517f08c379a00000000000000000000000000000000000000000000000000000000081526004016106ee9061330a565b60405180910390fd5b610701838361145f565b505050565b610717610711611457565b82611518565b610756576040517f08c379a000000000000000000000000000000000000000000000000000000000815260040161074d9061344a565b60405180910390fd5b6107618383836115f6565b505050565b6060600061079a61077684611852565b6040516020016107869190613094565b6040516020818303038152906040526119ff565b9050600a80549050816107ad9190613784565b9050600a81815481106107e9577f4e487b7100000000000000000000000000000000000000000000000000000000600052603260045260246000fd5b9060005260206000200180546107fe90613709565b80601f016020809104026020016040519081016040528092919081815260200182805461082a90613709565b80156108775780601f1061084c57610100808354040283529160200191610877565b820191906000526020600020905b81548152906001019060200180831161085a57829003601f168201915b5050505050915050919050565b61089f83838360405180602001604052806000815250610d49565b505050565b6000600754905090565b6000806002600084815260200190815260200160002060009054906101000a900473ffffffffffffffffffffffffffffffffffffffff169050600073ffffffffffffffffffffffffffffffffffffffff168173ffffffffffffffffffffffffffffffffffffffff161415610957576040517f08c379a000000000000000000000000000000000000000000000000000000000815260040161094e9061334a565b60405180910390fd5b80915050919050565b60008073ffffffffffffffffffffffffffffffffffffffff168273ffffffffffffffffffffffffffffffffffffffff1614156109d1576040517f08c379a00000000000000000000000000000000000000000000000000000000081526004016109c89061332a565b60405180910390fd5b600360008373ffffffffffffffffffffffffffffffffffffffff1673ffffffffffffffffffffffffffffffffffffffff168152602001908152602001600020549050919050565b606060018054610a2790613709565b80601f0160208091040260200160405190810160405280929190818152602001828054610a5390613709565b8015610aa05780601f10610a7557610100808354040283529160200191610aa0565b820191906000526020600020905b815481529060010190602001808311610a8357829003601f168201915b5050505050905090565b610ab2611457565b73ffffffffffffffffffffffffffffffffffffffff168273ffffffffffffffffffffffffffffffffffffffff161415610b20576040517f08c379a0000000000000000000000000000000000000000000000000000000008152600401610b17906132aa565b60405180910390fd5b8060056000610b2d611457565b73ffffffffffffffffffffffffffffffffffffffff1673ffffffffffffffffffffffffffffffffffffffff16815260200190815260200160002060008473ffffffffffffffffffffffffffffffffffffffff1673ffffffffffffffffffffffffffffffffffffffff16815260200190815260200160002060006101000a81548160ff0219169083151502179055508173ffffffffffffffffffffffffffffffffffffffff16610bda611457565b73ffffffffffffffffffffffffffffffffffffffff167f17307eab39ab6107e8899845ad3d59bd9653f200f220920489ca2b5937696c3183604051610c1f91906131cf565b60405180910390a35050565b60606000610c5f610c3b84611852565b604051602001610c4b919061311d565b6040516020818303038152906040526119ff565b9050600b8054905081610c729190613784565b9050600b8181548110610cae577f4e487b7100000000000000000000000000000000000000000000000000000000600052603260045260246000fd5b906000526020600020018054610cc390613709565b80601f0160208091040260200160405190810160405280929190818152602001828054610cef90613709565b8015610d3c5780601f10610d1157610100808354040283529160200191610d3c565b820191906000526020600020905b815481529060010190602001808311610d1f57829003601f168201915b5050505050915050919050565b610d5a610d54611457565b83611518565b610d99576040517f08c379a0000000000000000000000000000000000000000000000000000000008152600401610d909061344a565b60405180910390fd5b610da584848484611a32565b50505050565b60606000610ddf610dbb84611852565b604051602001610dcb9190613072565b6040516020818303038152906040526119ff565b9050600c8054905081610df29190613784565b9050600c8181548110610e2e577f4e487b7100000000000000000000000000000000000000000000000000000000600052603260045260246000fd5b906000526020600020018054610e4390613709565b80601f0160208091040260200160405190810160405280929190818152602001828054610e6f90613709565b8015610ebc5780601f10610e9157610100808354040283529160200191610ebc565b820191906000526020600020905b815481529060010190602001808311610e9f57829003601f168201915b5050505050915050919050565b6060610ed4826113eb565b610f13576040517f08c379a0000000000000000000000000000000000000000000000000000000008152600401610f0a906133aa565b60405180910390fd5b6000600660008481526020019081526020016000208054610f3390613709565b80601f0160208091040260200160405190810160405280929190818152602001828054610f5f90613709565b8015610fac5780601f10610f8157610100808354040283529160200191610fac565b820191906000526020600020905b815481529060010190602001808311610f8f57829003601f168201915b505050505090506000610fbd611a8e565b9050600081511415610fd3578192505050611016565b600082511115611008578082604051602001610ff0929190612fee565b60405160208183030381529060405292505050611016565b61101184611aa5565b925050505b919050565b600061102760086113dd565b9050600754811061106d576040517f08c379a0000000000000000000000000000000000000000000000000000000008152600401611064906132ea565b60405180910390fd5b600061107882610766565b9050600061108583610c2b565b9050600061109284610dab565b905060008383836040516020016110ab93929190613012565b604051602081830303815290604052905060006009826040516020016110d2929190613043565b60405160208183030381529060405290506000611117836110f284611b4c565b6040516020016111039291906130b6565b604051602081830303815290604052611b4c565b905060008160405160200161112c91906130fb565b604051602081830303815290604052905061117b6040518060400160405280601581526020017f0a2d2d2d2d2d2d2d2d2d2d2d2d2d2d2d2d2d2d2d2d00000000000000000000008152506112da565b611184816112da565b6111c26040518060400160405280601581526020017f2d2d2d2d2d2d2d2d2d2d2d2d2d2d2d2d2d2d2d2d0a00000000000000000000008152506112da565b6111cc3389611d0a565b6111d68882611d28565b6111f96040518060600160405280602581526020016138df602591398933611d9c565b6112036008611e3b565b7febb98688741ffa4c7589bf325de30cf7becb63de567842e1ccdb6cb949fdc82c33896040516112349291906131a6565b60405180910390a15050505050505050565b6000600560008473ffffffffffffffffffffffffffffffffffffffff1673ffffffffffffffffffffffffffffffffffffffff16815260200190815260200160002060008373ffffffffffffffffffffffffffffffffffffffff1673ffffffffffffffffffffffffffffffffffffffff16815260200190815260200160002060009054906101000a900460ff16905092915050565b611370816040516024016112ee91906131ea565b6040516020818303038152906040527f41304fac000000000000000000000000000000000000000000000000000000007bffffffffffffffffffffffffffffffffffffffffffffffffffffffff19166020820180517bffffffffffffffffffffffffffffffffffffffffffffffffffffffff8381831617835250505050611e51565b50565b60007f01ffc9a7000000000000000000000000000000000000000000000000000000007bffffffffffffffffffffffffffffffffffffffffffffffffffffffff1916827bffffffffffffffffffffffffffffffffffffffffffffffffffffffff1916149050919050565b600081600001549050919050565b60008073ffffffffffffffffffffffffffffffffffffffff166002600084815260200190815260200160002060009054906101000a900473ffffffffffffffffffffffffffffffffffffffff1673ffffffffffffffffffffffffffffffffffffffff1614159050919050565b600033905090565b816004600083815260200190815260200160002060006101000a81548173ffffffffffffffffffffffffffffffffffffffff021916908373ffffffffffffffffffffffffffffffffffffffff160217905550808273ffffffffffffffffffffffffffffffffffffffff166114d2836108ae565b73ffffffffffffffffffffffffffffffffffffffff167f8c5be1e5ebec7d5bd14f71427d1e84f3dd0314c0f7b2291e5b200ac8c7c3b92560405160405180910390a45050565b6000611523826113eb565b611562576040517f08c379a0000000000000000000000000000000000000000000000000000000008152600401611559906132ca565b60405180910390fd5b600061156d836108ae565b90508073ffffffffffffffffffffffffffffffffffffffff168473ffffffffffffffffffffffffffffffffffffffff1614806115dc57508373ffffffffffffffffffffffffffffffffffffffff166115c484610569565b73ffffffffffffffffffffffffffffffffffffffff16145b806115ed57506115ec8185611246565b5b91505092915050565b8273ffffffffffffffffffffffffffffffffffffffff16611616826108ae565b73ffffffffffffffffffffffffffffffffffffffff161461166c576040517f08c379a0000000000000000000000000000000000000000000000000000000008152600401611663906133ea565b60405180910390fd5b600073ffffffffffffffffffffffffffffffffffffffff168273ffffffffffffffffffffffffffffffffffffffff1614156116dc576040517f08c379a00000000000000000000000000000000000000000000000000000000081526004016116d39061328a565b60405180910390fd5b6116e7838383611e7a565b6116f260008261145f565b6001600360008573ffffffffffffffffffffffffffffffffffffffff1673ffffffffffffffffffffffffffffffffffffffff1681526020019081526020016000206000828254611742919061361f565b925050819055506001600360008473ffffffffffffffffffffffffffffffffffffffff1673ffffffffffffffffffffffffffffffffffffffff1681526020019081526020016000206000828254611799919061353e565b92505081905550816002600083815260200190815260200160002060006101000a81548173ffffffffffffffffffffffffffffffffffffffff021916908373ffffffffffffffffffffffffffffffffffffffff160217905550808273ffffffffffffffffffffffffffffffffffffffff168473ffffffffffffffffffffffffffffffffffffffff167fddf252ad1be2c89b69c2b068fc378daa952ba7f163c4a11628f55a4df523b3ef60405160405180910390a4505050565b6060600082141561189a576040518060400160405280600181526020017f300000000000000000000000000000000000000000000000000000000000000081525090506119fa565b600082905060005b600082146118cc5780806118b59061373b565b915050600a826118c59190613594565b91506118a2565b60008167ffffffffffffffff81111561190e577f4e487b7100000000000000000000000000000000000000000000000000000000600052604160045260246000fd5b6040519080825280601f01601f1916602001820160405280156119405781602001600182028036833780820191505090505b5090505b600085146119f357600182611959919061361f565b9150600a856119689190613784565b6030611974919061353e565b60f81b8183815181106119b0577f4e487b7100000000000000000000000000000000000000000000000000000000600052603260045260246000fd5b60200101907effffffffffffffffffffffffffffffffffffffffffffffffffffffffffffff1916908160001a905350600a856119ec9190613594565b9450611944565b8093505050505b919050565b600081604051602001611a129190612fd7565b6040516020818303038152906040528051906020012060001c9050919050565b611a3d8484846115f6565b611a4984848484611e7f565b611a88576040517f08c379a0000000000000000000000000000000000000000000000000000000008152600401611a7f9061324a565b60405180910390fd5b50505050565b606060405180602001604052806000815250905090565b6060611ab0826113eb565b611aef576040517f08c379a0000000000000000000000000000000000000000000000000000000008152600401611ae69061340a565b60405180910390fd5b6000611af9611a8e565b90506000815111611b195760405180602001604052806000815250611b44565b80611b2384611852565b604051602001611b34929190612fee565b6040516020818303038152906040525b915050919050565b60606000825190506000811415611b755760405180602001604052806000815250915050611d05565b60006003600283611b86919061353e565b611b909190613594565b6004611b9c91906135c5565b90506000602082611bad919061353e565b67ffffffffffffffff811115611bec577f4e487b7100000000000000000000000000000000000000000000000000000000600052604160045260246000fd5b6040519080825280601f01601f191660200182016040528015611c1e5781602001600182028036833780820191505090505b5090506000604051806060016040528060408152602001613904604091399050600181016020830160005b86811015611cc25760038101905062ffffff818a015116603f8160121c168401518060081b905060ff603f83600c1c1686015116810190508060081b905060ff603f8360061c1686015116810190508060081b905060ff603f831686015116810190508060e01b90508084526004840193505050611c49565b506003860660018114611cdc5760028114611cec57611cf7565b613d3d60f01b6002830352611cf7565b603d60f81b60018303525b508484525050819450505050505b919050565b611d24828260405180602001604052806000815250612016565b5050565b611d31826113eb565b611d70576040517f08c379a0000000000000000000000000000000000000000000000000000000008152600401611d679061336a565b60405180910390fd5b80600660008481526020019081526020016000209080519060200190611d97929190612252565b505050565b611e36838383604051602401611db49392919061320c565b6040516020818303038152906040527fe3849f79000000000000000000000000000000000000000000000000000000007bffffffffffffffffffffffffffffffffffffffffffffffffffffffff19166020820180517bffffffffffffffffffffffffffffffffffffffffffffffffffffffff8381831617835250505050611e51565b505050565b6001816000016000828254019250508190555050565b60008151905060006a636f6e736f6c652e6c6f679050602083016000808483855afa5050505050565b505050565b6000611ea08473ffffffffffffffffffffffffffffffffffffffff16612071565b15612009578373ffffffffffffffffffffffffffffffffffffffff1663150b7a02611ec9611457565b8786866040518563ffffffff1660e01b8152600401611eeb949392919061315a565b602060405180830381600087803b158015611f0557600080fd5b505af1925050508015611f3657506040513d601f19601f82011682018060405250810190611f339190612596565b60015b611fb9573d8060008114611f66576040519150601f19603f3d011682016040523d82523d6000602084013e611f6b565b606091505b50600081511415611fb1576040517f08c379a0000000000000000000000000000000000000000000000000000000008152600401611fa89061324a565b60405180910390fd5b805181602001fd5b63150b7a0260e01b7bffffffffffffffffffffffffffffffffffffffffffffffffffffffff1916817bffffffffffffffffffffffffffffffffffffffffffffffffffffffff19161491505061200e565b600190505b949350505050565b6120208383612084565b61202d6000848484611e7f565b61206c576040517f08c379a00000000000000000000000000000000000000000000000000000000081526004016120639061324a565b60405180910390fd5b505050565b600080823b905060008111915050919050565b600073ffffffffffffffffffffffffffffffffffffffff168273ffffffffffffffffffffffffffffffffffffffff1614156120f4576040517f08c379a00000000000000000000000000000000000000000000000000000000081526004016120eb9061338a565b60405180910390fd5b6120fd816113eb565b1561213d576040517f08c379a00000000000000000000000000000000000000000000000000000000081526004016121349061326a565b60405180910390fd5b61214960008383611e7a565b6001600360008473ffffffffffffffffffffffffffffffffffffffff1673ffffffffffffffffffffffffffffffffffffffff1681526020019081526020016000206000828254612199919061353e565b92505081905550816002600083815260200190815260200160002060006101000a81548173ffffffffffffffffffffffffffffffffffffffff021916908373ffffffffffffffffffffffffffffffffffffffff160217905550808273ffffffffffffffffffffffffffffffffffffffff16600073ffffffffffffffffffffffffffffffffffffffff167fddf252ad1be2c89b69c2b068fc378daa952ba7f163c4a11628f55a4df523b3ef60405160405180910390a45050565b82805461225e90613709565b90600052602060002090601f01602090048101928261228057600085556122c7565b82601f1061229957805160ff19168380011785556122c7565b828001600101855582156122c7579182015b828111156122c65782518255916020019190600101906122ab565b5b5090506122d491906122d8565b5090565b5b808211156122f15760008160009055506001016122d9565b5090565b6000612308612303846134b6565b613485565b90508281526020810184848401111561232057600080fd5b61232b8482856136c7565b509392505050565b60008135905061234281613882565b92915050565b60008135905061235781613899565b92915050565b60008135905061236c816138b0565b92915050565b600081519050612381816138b0565b92915050565b600082601f83011261239857600080fd5b81356123a88482602086016122f5565b91505092915050565b6000813590506123c0816138c7565b92915050565b6000602082840312156123d857600080fd5b60006123e684828501612333565b91505092915050565b6000806040838503121561240257600080fd5b600061241085828601612333565b925050602061242185828601612333565b9150509250929050565b60008060006060848603121561244057600080fd5b600061244e86828701612333565b935050602061245f86828701612333565b9250506040612470868287016123b1565b9150509250925092565b6000806000806080858703121561249057600080fd5b600061249e87828801612333565b94505060206124af87828801612333565b93505060406124c0878288016123b1565b925050606085013567ffffffffffffffff8111156124dd57600080fd5b6124e987828801612387565b91505092959194509250565b6000806040838503121561250857600080fd5b600061251685828601612333565b925050602061252785828601612348565b9150509250929050565b6000806040838503121561254457600080fd5b600061255285828601612333565b9250506020612563858286016123b1565b9150509250929050565b60006020828403121561257f57600080fd5b600061258d8482850161235d565b91505092915050565b6000602082840312156125a857600080fd5b60006125b684828501612372565b91505092915050565b6000602082840312156125d157600080fd5b60006125df848285016123b1565b91505092915050565b6125f181613653565b82525050565b61260081613665565b82525050565b6000612611826134fb565b61261b8185613511565b935061262b8185602086016136d6565b61263481613871565b840191505092915050565b600061264a82613506565b6126548185613522565b93506126648185602086016136d6565b61266d81613871565b840191505092915050565b600061268382613506565b61268d8185613533565b935061269d8185602086016136d6565b80840191505092915050565b600081546126b681613709565b6126c08186613533565b945060018216600081146126db57600181146126ec5761271f565b60ff1983168652818601935061271f565b6126f5856134e6565b60005b83811015612717578154818901526001820191506020810190506126f8565b838801955050505b50505092915050565b6000612735600a83613533565b91507f54686152445f574f5244000000000000000000000000000000000000000000006000830152600a82019050919050565b6000612775603283613522565b91507f4552433732313a207472616e7366657220746f206e6f6e20455243373231526560008301527f63656976657220696d706c656d656e74657200000000000000000000000000006020830152604082019050919050565b60006127db601c83613522565b91507f4552433732313a20746f6b656e20616c7265616479206d696e746564000000006000830152602082019050919050565b600061281b600883613533565b91507f3153545f574f52440000000000000000000000000000000000000000000000006000830152600882019050919050565b600061285b602483613522565b91507f4552433732313a207472616e7366657220746f20746865207a65726f2061646460008301527f72657373000000000000000000000000000000000000000000000000000000006020830152604082019050919050565b60006128c1601983613522565b91507f4552433732313a20617070726f766520746f2063616c6c6572000000000000006000830152602082019050919050565b6000612901602c83613522565b91507f4552433732313a206f70657261746f7220717565727920666f72206e6f6e657860008301527f697374656e7420746f6b656e00000000000000000000000000000000000000006020830152604082019050919050565b6000612967600d83613533565b91507f3c2f746578743e3c2f7376673e000000000000000000000000000000000000006000830152600d82019050919050565b60006129a7602283613522565b91507f416c7265616479206d696e74656420616c6c20617661696c61626c65204e465460008301527f73210000000000000000000000000000000000000000000000000000000000006020830152604082019050919050565b6000612a0d603883613522565b91507f4552433732313a20617070726f76652063616c6c6572206973206e6f74206f7760008301527f6e6572206e6f7220617070726f76656420666f7220616c6c00000000000000006020830152604082019050919050565b6000612a73602a83613522565b91507f4552433732313a2062616c616e636520717565727920666f7220746865207a6560008301527f726f2061646472657373000000000000000000000000000000000000000000006020830152604082019050919050565b6000612ad9602983613522565b91507f4552433732313a206f776e657220717565727920666f72206e6f6e657869737460008301527f656e7420746f6b656e00000000000000000000000000000000000000000000006020830152604082019050919050565b6000612b3f602e83613522565b91507f45524337323155524953746f726167653a2055524920736574206f66206e6f6e60008301527f6578697374656e7420746f6b656e0000000000000000000000000000000000006020830152604082019050919050565b6000612ba5605883613533565b91507f222c20226465736372697074696f6e223a2022506f6b656d6f6e20746872656560008301527f20776f7264732073656e74656e6365732e222c2022696d616765223a2022646160208301527f74613a696d6167652f7376672b786d6c3b6261736536342c00000000000000006040830152605882019050919050565b6000612c31600283613533565b91507f227d0000000000000000000000000000000000000000000000000000000000006000830152600282019050919050565b6000612c71602083613522565b91507f4552433732313a206d696e7420746f20746865207a65726f20616464726573736000830152602082019050919050565b6000612cb1603183613522565b91507f45524337323155524953746f726167653a2055524920717565727920666f722060008301527f6e6f6e6578697374656e7420746f6b656e0000000000000000000000000000006020830152604082019050919050565b6000612d17602c83613522565b91507f4552433732313a20617070726f76656420717565727920666f72206e6f6e657860008301527f697374656e7420746f6b656e00000000000000000000000000000000000000006020830152604082019050919050565b6000612d7d602983613522565b91507f4552433732313a207472616e73666572206f6620746f6b656e2074686174206960008301527f73206e6f74206f776e00000000000000000000000000000000000000000000006020830152604082019050919050565b6000612de3602f83613522565b91507f4552433732314d657461646174613a2055524920717565727920666f72206e6f60008301527f6e6578697374656e7420746f6b656e00000000000000000000000000000000006020830152604082019050919050565b6000612e49600a83613533565b91507f7b226e616d65223a2022000000000000000000000000000000000000000000006000830152600a82019050919050565b6000612e89602183613522565b91507f4552433732313a20617070726f76616c20746f2063757272656e74206f776e6560008301527f72000000000000000000000000000000000000000000000000000000000000006020830152604082019050919050565b6000612eef601d83613533565b91507f646174613a6170706c69636174696f6e2f6a736f6e3b6261736536342c0000006000830152601d82019050919050565b6000612f2f600883613533565b91507f324e445f574f52440000000000000000000000000000000000000000000000006000830152600882019050919050565b6000612f6f603183613522565b91507f4552433732313a207472616e736665722063616c6c6572206973206e6f74206f60008301527f776e6572206e6f7220617070726f7665640000000000000000000000000000006020830152604082019050919050565b612fd1816136bd565b82525050565b6000612fe38284612678565b915081905092915050565b6000612ffa8285612678565b91506130068284612678565b91508190509392505050565b600061301e8286612678565b915061302a8285612678565b91506130368284612678565b9150819050949350505050565b600061304f82856126a9565b915061305b8284612678565b91506130668261295a565b91508190509392505050565b600061307d82612728565b91506130898284612678565b915081905092915050565b600061309f8261280e565b91506130ab8284612678565b915081905092915050565b60006130c182612e3c565b91506130cd8285612678565b91506130d882612b98565b91506130e48284612678565b91506130ef82612c24565b91508190509392505050565b600061310682612ee2565b91506131128284612678565b915081905092915050565b600061312882612f22565b91506131348284612678565b915081905092915050565b600060208201905061315460008301846125e8565b92915050565b600060808201905061316f60008301876125e8565b61317c60208301866125e8565b6131896040830185612fc8565b818103606083015261319b8184612606565b905095945050505050565b60006040820190506131bb60008301856125e8565b6131c86020830184612fc8565b9392505050565b60006020820190506131e460008301846125f7565b92915050565b60006020820190508181036000830152613204818461263f565b905092915050565b60006060820190508181036000830152613226818661263f565b90506132356020830185612fc8565b61324260408301846125e8565b949350505050565b6000602082019050818103600083015261326381612768565b9050919050565b60006020820190508181036000830152613283816127ce565b9050919050565b600060208201905081810360008301526132a38161284e565b9050919050565b600060208201905081810360008301526132c3816128b4565b9050919050565b600060208201905081810360008301526132e3816128f4565b9050919050565b600060208201905081810360008301526133038161299a565b9050919050565b6000602082019050818103600083015261332381612a00565b9050919050565b6000602082019050818103600083015261334381612a66565b9050919050565b6000602082019050818103600083015261336381612acc565b9050919050565b6000602082019050818103600083015261338381612b32565b9050919050565b600060208201905081810360008301526133a381612c64565b9050919050565b600060208201905081810360008301526133c381612ca4565b9050919050565b600060208201905081810360008301526133e381612d0a565b9050919050565b6000602082019050818103600083015261340381612d70565b9050919050565b6000602082019050818103600083015261342381612dd6565b9050919050565b6000602082019050818103600083015261344381612e7c565b9050919050565b6000602082019050818103600083015261346381612f62565b9050919050565b600060208201905061347f6000830184612fc8565b92915050565b6000604051905081810181811067ffffffffffffffff821117156134ac576134ab613842565b5b8060405250919050565b600067ffffffffffffffff8211156134d1576134d0613842565b5b601f19601f8301169050602081019050919050565b60008190508160005260206000209050919050565b600081519050919050565b600081519050919050565b600082825260208201905092915050565b600082825260208201905092915050565b600081905092915050565b6000613549826136bd565b9150613554836136bd565b9250827fffffffffffffffffffffffffffffffffffffffffffffffffffffffffffffffff03821115613589576135886137b5565b5b828201905092915050565b600061359f826136bd565b91506135aa836136bd565b9250826135ba576135b96137e4565b5b828204905092915050565b60006135d0826136bd565b91506135db836136bd565b9250817fffffffffffffffffffffffffffffffffffffffffffffffffffffffffffffffff0483118215151615613614576136136137b5565b5b828202905092915050565b600061362a826136bd565b9150613635836136bd565b925082821015613648576136476137b5565b5b828203905092915050565b600061365e8261369d565b9050919050565b60008115159050919050565b60007fffffffff0000000000000000000000000000000000000000000000000000000082169050919050565b600073ffffffffffffffffffffffffffffffffffffffff82169050919050565b6000819050919050565b82818337600083830152505050565b60005b838110156136f45780820151818401526020810190506136d9565b83811115613703576000848401525b50505050565b6000600282049050600182168061372157607f821691505b6020821081141561373557613734613813565b5b50919050565b6000613746826136bd565b91507fffffffffffffffffffffffffffffffffffffffffffffffffffffffffffffffff821415613779576137786137b5565b5b600182019050919050565b600061378f826136bd565b915061379a836136bd565b9250826137aa576137a96137e4565b5b828206905092915050565b7f4e487b7100000000000000000000000000000000000000000000000000000000600052601160045260246000fd5b7f4e487b7100000000000000000000000000000000000000000000000000000000600052601260045260246000fd5b7f4e487b7100000000000000000000000000000000000000000000000000000000600052602260045260246000fd5b7f4e487b7100000000000000000000000000000000000000000000000000000000600052604160045260246000fd5b6000601f19601f8301169050919050565b61388b81613653565b811461389657600080fd5b50565b6138a281613665565b81146138ad57600080fd5b50565b6138b981613671565b81146138c457600080fd5b50565b6138d0816136bd565b81146138db57600080fd5b5056fe416e204e465420772f20494420257320686173206265656e206d696e74656420746f2025734142434445464748494a4b4c4d4e4f505152535455565758595a6162636465666768696a6b6c6d6e6f707172737475767778797a303132333435363738392b2fa2646970667358221220f3fc93c099f6cf7c083f7b10371cdacce49c2eddfb0212d8a6d3d60e4dc4bfad64736f6c634300080000333c73766720786d6c6e733d27687474703a2f2f7777772e77332e6f72672f323030302f73766727207072657365727665417370656374526174696f3d27784d696e594d696e206d656574272076696577426f783d273020302033353020333530273e3c7374796c653e2e62617365207b2066696c6c3a2077686974653b20666f6e742d66616d696c793a2073657269663b20666f6e742d73697a653a20323470783b207d3c2f7374796c653e3c726563742077696474683d273130302527206865696768743d2731303025272066696c6c3d27626c61636b27202f3e3c7465787420783d273530252720793d273530252720636c6173733d27626173652720646f6d696e616e742d626173656c696e653d276d6964646c652720746578742d616e63686f723d276d6964646c65273e",
  "linkReferences": {},
  "deployedLinkReferences": {}
}